:1000000045C0000060C000005EC000005CC0000091
:100010005AC0000058C0000056C0000054C0000084
:1000200052C0000050C000004EC000004CC0000094
:100030004AC0000048C0000046C0000044C00000A4
:100040001DC3000040C000003EC000003CC00000D6
:100050003AC0000038C0000036C0000034C00000C4
:1000600032C0000030C000002EC000002CC00000D4
:100070002AC0000028C0000026C0000024C00000E4
:1000800022C0000020C000001EC0000011241FBEBE
:10009000CFEFD0E1DEBFCDBF21E0A4E0B1E001C0F1
:1000A0001D92A73CB207E1F711E0A0E0B1E0E6E362
:1000B000FBE000E00BBF02C007900D92A430B10737
:1000C000D9F75ED036C59CCF6091070181E06827E3
:1000D0006093070120E130E040E050E08EE090E0E6
:1000E0005DC16091050181E068276093050120E111
:1000F00030E040E050E087E090E050C160910601C0
:1001000081E068276093060120E130E040E050E0A4
:100110008DE090E043D180E08AC16091040181E0EC
:1001200068276093040120E130E040E050E086E081
:1001300090E034D181E07BC17DD143D389D33FD1DD
:1001400025D00DD46DE870E080E090E086D261E7C4
:1001500070E082E090E081D26EE770E081E090E0B4
:100160007CD264E670E083E090E077D215BE109216
:100170006A001ABE19BE10927D00F5D278940895D7
:10018000DBDF8FEF93E034D320D1FECF1BBAEDE25B
:10019000F1E011821282138214821082158216827B
:1001A00017821086399681E0ED3BF80791F785E9D3
:1001B00091E009C31BBA8730910581F170F4833057
:1001C000910521F128F481309105E1F0E8F418C09F
:1001D00085309105F9F000F51BC08B30910539F1A0
:1001E00028F489309105F1F000F51AC08D309105A1
:1001F00011F1F8F08E30910501F10F9711F51FC044
:100200008CEF1EC080E61CC08AED1AC082EF18C0B9
:1002100086E616C086EB14C08EEB05C080EE10C0DB
:100220008EEF0EC086EF8BBB0EC08EEE09C08EE344
:1002300007C08CE905C08AE703C08EE901C08EE8DB
:100240008BBBD8980895D89A08958730910579F195
:1002500070F48330910519F128F481309105D9F1BA
:10026000E0F419C085309105F1F0F8F41AC08B3034
:10027000910529F128F489309105E9F0F0F419C0CD
:100280008D30910511F1E8F08E30910501F10F9755
:1002900009F04AC01EC023E01FC025E01DC026E0B3
:1002A0001BC027E019C020E00DC021E00BC022E0F8
:1002B00009C023E007C024E005C025E003C026E014
:1002C00001C027E0E2E3F0E009C020E005C021E042
:1002D00003C022E001C024E0E5E3F0E061307105F5
:1002E00029F068F062307105F9F414C0022E01C0E3
:1002F000660F0A94EAF78081862B8083089581E057
:1003000090E0022E01C0880F0A94EAF78095908150
:10031000982309C081E090E0022E01C0880F0A9462
:10032000EAF79081982790830895EF92FF920F93B8
:100330001F93CF93DF93CDE2D1E0E12CF12C8881A4
:100340008130E9F44D815E816F8178854F5F5F4F29
:100350006F4F7F4F4D835E836F83788709811A814A
:100360002B813C81401751076207730740F062E020
:1003700070E0C7016ADF1D821E821F8218868FEF20
:10038000E81AF80A299680E1E816F104C1F6DF912F
:10039000CF911F910F91FF90EF90089580319105BB
:1003A00068F479E0789FF001799FF00D1124E35D06
:1003B000FE4F608321833283438354830895BFD1EA
:1003C0008093BD011092BF010895CF93DF93809178
:1003D000BF01813009F568D3EC018FEF93E008D2BB
:1003E0008091BD01AFD18530F8F0A9D18093BD01D6
:1003F000CE0164E670E0C3D2823334F080E090E056
:1004000007D281E090E005C081E090E001D282E077
:1004100090E0DF91CF91CECE92D18093BD0180E06C
:1004200090E0DF91CF91E4C1DF91CF910895809367
:10043000BF0108958FEF8ABBB89A97B3906697BBB8
:10044000BF9AC79AC09A84BB81BB12B81092610050
:1004500080936200109209011092080110920B0122
:1004600010920A0110920D0110920C0110920F01CE
:1004700010920E01109211011092100110921301AE
:100480001092120180E592E09EC120B130E002C0DE
:10049000359527958A95E2F7822F8095817008958A
:1004A000CF92DF92EF92FF92C0901401D09015018D
:1004B000E0901601F09017018FEFC81AD80AE80AE9
:1004C000F80AC0921401D0921501E0921601F09240
:1004D00017018091180181113BC081E0D6DF88238C
:1004E00069F080E0D2DF882349F08CE3C816D1049C
:1004F000E104F10418F081E08093180181E0C5DF88
:10050000882369F080E0C1DF811109C08CE3C8163F
:10051000D104E104F10418F082E08093180181E035
:10052000B4DF81110DC0B1DF882351F08CE3C81610
:10053000D104E104F10420F084E08093180188C024
:1005400081E0A3DF811184C0A0DF811181C076C06A
:10055000813029F59ADF882379F080E096DF8823BF
:1005600059F084EBC816D104E104F10428F0E091BD
:100570001201F09113015FC081E087DF811168C033
:1005800084DF811165C084EBC816D104E104F10455
:1005900008F05EC0E0911001F09111014CC0823072
:1005A00029F581E072DF882379F080E06EDF811128
:1005B0000BC084EBC816D104E104F10428F0E091EB
:1005C0000C01F0910D0137C081E05FDF811140C067
:1005D0005CDF81113DC084EBC816D104E104F10455
:1005E000B8F5E0910801F091090125C0843081F54A
:1005F00081E04BDF81110EC048DF882359F084EB86
:10060000C816D104E104F10428F0E0910E01F09144
:100610000F0111C081E039DF81111AC036DF81116D
:1006200017C084EBC816D104E104F10488F4E0910A
:100630000A01F0910B01309709F009951092180109
:1006400010921401109215011092160110921701C8
:10065000FF90EF90DF90CF9008956115710561F0E4
:100660008630910548F4FC01EE0FFF1FE85FFE4F56
:100670007183608380E0089581E008951F920F9256
:100680000FB60F9211240BB60F920F931F932F9357
:100690003F934F935F936F937F938F939F93AF930A
:1006A000BF93CF93DF93EF93FF9382EB82BF809151
:1006B0001B018F5F80931B0180911A018F5F8093D4
:1006C0001A0180911A01843638F0809119018F5FE8
:1006D0008093190110921A0180911C0190911D01C3
:1006E000892BB1F481E090E090931D0180931C016F
:1006F00000911E01CFE1D1E010E004C0E991F99131
:1007000009951F5F1013FACF10921D0110921C0162
:10071000FF91EF91DF91CF91BF91AF919F918F9119
:100720007F916F915F914F913F912F911F910F9109
:100730000F900BBE0F900FBE0F901F9018958091D9
:10074000190108952091190130E0482F50E0241735
:10075000350728F42091190130E021503F4F922FA6
:10076000981B892F089587B7816087BF08958230CD
:10077000910570F49B01611544E0740710F02FEFB0
:1007800033E0019719F03BBD2ABD089539BD28BD5E
:10079000089513BE10BE82EB82BF8EE481BF87E056
:1007A00083BF08958BEA8FBD8AE08EBD93E09BBD29
:1007B0008FEF8ABD99BD88BD9093790080937800B2
:1007C0000895E7DFEFCF009789F020911E012330D5
:1007D00069F0E22FF0E0EE0FFF1FE15EFE4F918324
:1007E00080832F5F20931E0180E0089581E00895AB
:1007F000BC01611584E0780710F06FEF73E070932F
:10080000C4016093C3018091C5019091C601AFCF2F
:10081000009749F41092C6011092C5016AE070E099
:1008200081E090E00BC08130910549F49093C601BE
:100830008093C5016AE070E080E090E098DF60910D
:10084000C3017091C4018091C5019091C6018FCF01
:1008500080E090E0DDDF8AE090E0CACFCF93DF93C5
:10086000C0E0D0E061E070E0CE01EFDC20E030E0FD
:10087000A90160E0CE0192DD2196C530D10591F746
:10088000DF91CF910895CF93DF936091270170910D
:1008900028018091290190912A016F5F7F4F8F4F2E
:1008A0009F4F6093270170932801809329019093B3
:1008B0002A0120912501309126012130310509F0CE
:1008C0003FC0643F21E072078105910508F525E0EE
:1008D00030E040E050E066D0672B682B692B09F0D0
:1008E0003BC0E2D0EC0161E070E080912B0190917F
:1008F0002C01ABDCCE0165E070E041D0D82FC92FD0
:1009000060E070E0A2DCD0932B01C0932C0124C0E6
:10091000643F21E072078105910561F42AE030E02F
:1009200040E050E061E080912B0190912C01DF913B
:10093000CF9134CD683E73408105910569F48EDF17
:1009400010922701109228011092290110922A0179
:100950001092260110922501DF91CF9108951092F7
:100960002601109225011092270110922801109261
:10097000290110922A0183E494E025DF6FCF97FBD1
:10098000072E16F4009406D077FD08D02DD007FC72
:1009900005D03EF4909581959F4F0895709561958F
:1009A0007F4F0895A1E21A2EAA1BBB1BFD010DC0AB
:1009B000AA1FBB1FEE1FFF1FA217B307E407F5070F
:1009C00020F0A21BB30BE40BF50B661F771F881FEB
:1009D000991F1A9469F760957095809590959B0181
:1009E000AC01BD01CF010895AA1BBB1B51E107C09B
:1009F000AA1FBB1FA617B70710F0A61BB70B881FAF
:100A0000991F5A95A9F780959095BC01CD0108953D
:100A10008F929F92AF92BF92CF92DF92EF92FF920E
:100A2000CF93DF93EC01688179818A819B81611585
:100A300071058105910521F464E279ED8BE597E07C
:100A40002DE133EF41E050E03DD049015A019B01D7
:100A5000AC01A7EAB1E451D06B017C01ACEEB4EF7C
:100A6000A501940156D0C60ED71EE81EF91EF7FE4A
:100A700006C081E0C81AD108E10880E8F80AC882F7
:100A8000D982EA82FB82E894D7F8EE24FF24C601DB
:100A9000DF91CF91FF90EF90DF90CF90BF90AF901C
:100AA0009F908F900895B4CF80E091E0B1CFA0E007
:100AB000B0E08093000190930101A0930201B093F4
:100AC00003010895052E97FB16F4009406D057FDF8
:100AD0000CD068DF07FC09D07EF490958095709566
:100AE00061957F4F8F4F9F4F08955095409530955A
:100AF00021953F4F4F4F5F4F08950FD0A59F900D09
:100B0000B49F900DA49F800D911D11240895B7FFEF
:100B1000F4CFF3DF821B930B0895A29FB001B39F24
:100B2000C001A39F01D0B29F700D811D1124911DA2
:060B30000895F894FFCFC8
:040B360001000000BA
:00000001FF
